:040000008A110B282E
:10000800FE00030EF0000A08F1008A11262E8A115C
:100018000D288313BE30FD000F30FE003930FF007D
:10002800B03084008A157A278A116E30FD000F30AF
:10003800FE002230FF00653084008A157A278A1175
:10004800A0308400B0308A151A278A112030840025
:100058004A308A151A278A11FA01FB0183018A118D
:1000680035288A11B8278A116D3083120313CA0004
:100078006B30CB006930CC006730CD006530CE00E6
:100088008A1179268A11003A031D4B284C287328B7
:1000980083120313ED018830EB000430EC00FF30CD
:1000A800E9000030EA00AA30E7000030E8001D301F
:1000B800E5000130E6006C08CB006B08CA006A084E
:1000C800CD006908CC006808CF006708CE00660834
:1000D800D1006508D0006D088A1154278A110430B0
:1000E8008A15B8278A11730883120313B30072089C
:1000F800B2000030D2000030D1000330D000FF3011
:10010800CF003208F2003308F300F401F5010030A3
:10011800F9000030F8000130F7006830F6008A1165
:10012800C8268A11750883120313D6007408D500EF
:100138007308D4007208D3008A116C258A118312BF
:1001480003134F08783EAE0050080318013E003EE6
:10015800AF0083160313C0010A304002031CB52800
:10016800B628B7280D29831203130514851405151D
:100178000516831603134008031DC328C428CD2879
:10018800831203138718C928CA28E4280130C50038
:10019800E42803304006031DD228D328E42883121C
:1001A80003134503031DD928DA28E4288718DD2816
:1001B800DE28E4280130C4000A3083160313C00087
:1001C800063083120313DF001330DE00AD30DD008C
:1001D800DD0BEC28DE0BEC28DF0BEC28000083128B
:1001E8000313051085100511051206308312031339
:1001F800DF001330DE00AD30DD00DD0B0129DE0B42
:100208000129DF0B01290000013083160313C00701
:10021800B0288A1565278A113329051006308312FC
:100228000313DF001330DE00AD30DD00DD0B1A29CB
:10023800DE0B1A29DF0B1A29000083120313051499
:10024800063083120313DF001330DE00AD30DD000B
:10025800DD0B2C29DE0B2C29DF0B2C290000831247
:1002680003134408031D39293A291129831203135A
:1002780087183F29402961298A1100258A11831688
:100288000313BE003E0803194A294B29522901309D
:1002980083120313B9000130B700612903108312D8
:1002A8000313051D031403185A295E298312031327
:1002B800051561298312031305118A1110278A1164
:1002C80083160313BF0110303F02031C6C296D29EC
:1002D8006E297F2903308A15B8278A11720883127C
:1002E8000313AC070318AD0A7308AD070130831672
:1002F8000313BF076729831203132C0E0F39B000AD
:100308002D0EF039B0042D0E0F39B100AC01AD013E
:100318000030D2000030D1000330D000FF30CF00D1
:100328003008F2003108F300F401F5010030F9005B
:100338000030F8000030F700EB30F6008A11C826CC
:100348008A11750883120313D6007408D500730840
:10035800D4007208D3008A116C258A118312031302
:100368004F08553EC3002418BA29BB29BD290514D6
:10037800BE2905103F08031DC229C329CE294008FC
:10038800031DC729C829CE298A152B278A118A1542
:1003980056278A114930F2004830F3004730F400FC
:1003A8008A118A278A11003A0319DB29DC29F229E4
:1003B8008312031348080319E229E329E5290516DE
:1003C800B7014908031DE929EA29F2294808031D4C
:1003D800EE29EF29F22905120130B7008312031321
:1003E800370839060319F929FA29452A2308220466
:1003F80021042004031D012A022A0B2A2708A3002E
:100408002608A2002508A1002408A000842A2408A0
:10041800DD002508DE002608DF002708E0002008A8
:10042800DD022108031C210F1A2A1B2ADE022208DA
:10043800031C220F202A212ADF022308031C230F72
:10044800262A272AE0026008031D382A5F08031DB0
:10045800382A5E08031D382A0A305D02031D342A33
:10046800031C372A382A842A003083120313A30076
:100478000030A2000030A1000030A0003708B90009
:10048800842A230822042104200403194C2A4D2A13
:10049800842A2408DD002508DE002608DF00270856
:1004A800E0002008DD022108031C210F5C2A5D2AD8
:1004B800DE022208031C220F622A632ADF022308B5
:1004C800031C230F682A692AE0026008031D7A2AA0
:1004D8005F08031D7A2A5E08031D7A2A0A305D0226
:1004E800031D762A031C792A7A2A842A003083126B
:1004F8000313A3000030A2000030A1000030A000C8
:10050800831203134708360603198B2A8C2AD12A2B
:100518002A082B04031D912A922A972A2508AB0042
:100528002408AA000E2B2A08DD002B08DE00DF01B4
:10053800E0012408E1002508E2002608E300270876
:10054800E4005D08E1025E08031C5E0FAC2AAD2AD8
:10055800E2025F08031C5F0FB22AB32AE3026008B5
:10056800031C600FB82AB92AE4026408031DCA2ACA
:100578006308031DCA2A6208031DCA2A0A306102D9
:10058800031DC62A031CC92ACA2A0E2B8312031369
:10059800AA01AB014708B6000E2B2A082B04031941
:1005A800D62AD72A0E2B2A08DD002B08DE00DF0109
:1005B800E0012408E1002508E2002608E3002708F6
:1005C800E4005D08E1025E08031C5E0FEC2AED2AD8
:1005D800E2025F08031C5F0FF22AF32AE3026008B5
:1005E800031C600FF82AF92AE4026408031D0A2B89
:1005F8006308031D0A2B6208031D0A2B0A306102D7
:10060800031D062B031C092B0A2B0E2B8312031325
:10061800AA01AB018312031339080319142B152BF4
:10062800422C3B08031D192B1A2B442B3D08031D94
:100638001E2B1F2B442B3C08031D232B242B442B40
:100648003A08031D282B292B442B871527088316C6
:100658000313AB0083120313260883160313AA009F
:1006680083120313250883160313A90083120313A7
:10067800240883160313A800013083120313BA0059
:100688003A080319482B492B4A2C831603133808B8
:1006980083120313DD00831603133908831203132F
:1006A800DE00DF01E0012408E1002508E200260859
:1006B800E3002708E40083160313280883120313B2
:1006C800E102831603132908031C290F6C2B6F2BD7
:1006D80083120313E202831603132A08031C2A0F4A
:1006E800762B792B83120313E302831603132B084B
:1006F800031C2B0F802B832B83120313E402831616
:1007080003138312031360086402031D952B5F080B
:100718006302031D952B5E086202031D952B5D087D
:100728006102031C982B992B9B2B0130BB003608C8
:10073800031D9F2BA02B172C2418A32BA42BA62B0F
:100748000515A72B0511831603132F082E042D0456
:100758002C04031DB02BB12BCA2B831203132708BB
:1007680083160313AF00831203132608831603139B
:10077800AE0083120313250883160313AD008312FA
:100788000313240883160313AC00262C83120313C7
:100798002E08DD002F08DE00DF01E0012408E1005B
:1007A8002508E2002608E3002708E400831603135F
:1007B8002C0883120313E102831603132D08031C6C
:1007C8002D0FE72BEA2B83120313E2028316031380
:1007D8002E08031C2E0FF12BF42B83120313E302B4
:1007E800831603132F08031C2F0FFB2BFE2B8312DA
:1007F8000313E402831603138312031360086402CD
:10080800031D102C5F086302031D102C5E08620292
:10081800031D102C5D086102031C132C142C262CBC
:100828000130BC00262C003083160313AF000030C3
:10083800AE000030AD000030AC000130831203136D
:10084800B800051183124308DD00DE015E08660268
:10085800031D302C5D086502031C332C342C3F2CFF
:100868004308DD006808031D3B2C67085D02031878
:100878003E2C3F2C4A2C0130BD004A2C3A08031963
:10088800462C472C4A2CBA01BE0187113B08031994
:100898004E2C4F2C502CBA013C080319542C552CC3
:1008A800562CBA013D0803195A2C5B2CD12C8316FF
:1008B80003132708260425042404031D642C652C2F
:1008C8007E2C83120313270883160313A7008312B1
:1008D8000313260883160313A6008312031325089F
:1008E80083160313A5008312031324088316031326
:1008F800A400CE2C831203132408DD002508DE0093
:100908002608DF002708E000831603132408831253
:100918000313DD02831603132508031C250F952CEA
:10092800982C83120313DE02831603132608031C74
:10093800260F9F2CA22C83120313DF0283160313A6
:100948002708031C270FA92CAC2C83120313E002E1
:1009580083160313831203136008031DC12C5F0859
:10096800031DC12C5E08031DC12C0A305D02031D46
:10097800BD2C031CC02CC12CCE2C83120313BD012B
:10098800003083160313A7000030A6000030A5002E
:100998000030A40083120313BA013A08031DD52CB2
:1009A800D62CD92C871185103A2985148715003043
:1009B800F5000030F4000030F3001E30F200270884
:1009C800F9002608F8002508F7002408F6008A111F
:1009D800D2258A117508740473047204031DF52C5A
:1009E800F62C3A290130F2000030F3008A15D92795
:1009F8008A113A298A110B28F801831203138718E0
:100A0800062D072D6A2D4130F300EE30F200F20B6F
:100A18000B2DF30B0B2D0000831203138718152DD4
:100A2800162D6A2DF601F7011430F4000030F50098
:100A3800522D0D30F300FB30F200F20B212DF30B99
:100A4800212D262D0130F6070318F70A0030F70785
:100A580075087702031D322D74087602031C352DA4
:100A6800362D522D0130F800422D0D30F300FB30A9
:100A7800F200F20B3D2DF30B3D2D422D8312031393
:100A8800871C472D482D392D4130F300EE30F200F8
:100A9800F20B4C2DF30B4C2D0000582D8312031331
:100AA800871C572D582D1D2D7808031D5C2D5D2D95
:100AB800682D4130F300EE30F200F20B612DF30B9C
:100AC800612D000000306B2D01306B2D00300800C7
:100AD800003083120313DB000030DA000030D90045
:100AE8000030D8005208510450044F0403197D2DDA
:100AF8007E2DC92D0130DC008C2D0130D70003106C
:100B0800CF0DD00DD10DD20DD70B832D0130DC07C1
:100B1800D21F8F2D902D812D0130D7000310D80DB5
:100B2800D90DDA0DDB0DD70B922D52085602031D95
:100B3800A72D51085502031DA72D50085402031D67
:100B4800A72D4F085302031CAA2DAB2DBA2D4F0811
:100B5800D3025008031C500FD4025108031C510F34
:100B6800D5025208031C520FD60258140130031044
:100B7800D20CD10CD00CCF0CFF3E031DBB2D013085
:100B8800DC02031DC82DC92D902D5B08D2005A0820
:100B9800D1005908D0005808CF000800750874041F
:100BA800730472040319D92DDA2D1D2E0130831216
:100BB8000313CB00EA2D0130CA000310F20DF30D28
:100BC800F40DF50DCA0BE12D0130CB07F51FED2D06
:100BD800EE2DDF2D75087902031DFC2D74087802AF
:100BE800031DFC2D73087702031DFC2D7208760285
:100BF800031CFF2D002E0E2E7208F6027308031C2C
:100C0800730FF7027408031C740FF8027508031CAD
:100C1800750FF90201300310F50CF40CF30CF20C0B
:100C2800FF3E031D0F2E0130CB02031D1C2E1D2E6F
:100C3800EE2D7908F5007808F4007708F3007608B7
:100C4800F2000800831203130C1C2B2E2C2E482EA6
:100C58004608031D302E312E422E0130A4070030E5
:100C680003180130A507003003180130A60700302B
:100C780003180130A7070130C600432EC6010C1027
:100C880012308F0038308E000B1D4B2E4C2E722EDA
:100C9800063081000B113F080319532E542E722E73
:100CA800861E572E582E5A2E0130FA07061E5D2E24
:100CB8005E2E602E0130C207861D632E642E662EBE
:100CC8000130C1070130FB0732307B02031C6D2E57
:100CD8006E2E722EBF010130C0008B1271088A007F
:100CE800700E8300FE0E7E0E090000308A158727DD
:100CF8008A11AA3A0319812E822E842E0030C72E1B
:100D0800831203134A08840001308A1587278A1141
:100D18008313800002308A159A278A1183120313DD
:100D28004B088400730883138000840A74088000C9
:100D380004308A159A278A11831203134C088400F9
:100D4800730883138000840A7408800006308A15AB
:100D58009A278A11831203134D088400730883139A
:100D68008000840A7408800008308A159A278A113E
:100D7800831203134E088400730883138000840AC7
:100D88007408800001300800003083120313CE007D
:100D98000030CD000030CC000030CB00721CD52EC6
:100DA800D62EED2E7608CB07770803110318013EDF
:100DB8000319DF2ECC07780803110318013E031925
:100DC800E62ECD07790803110318013E0319ED2E0D
:100DD800CE070130CA000310F60DF70DF80DF90D16
:100DE800CA0BEF2E01300310F50CF40CF30CF20CC7
:100DF800FF3E031DF72E7508740473047204031D67
:100E0800062F072FD22E4E08F5004D08F4004C0887
:100E1800F3004B08F2000800831203133408031987
:100E2800162F172F532F2808F2002908F300F40172
:100E3800F5012408F6002508F7002608F800270819
:100E4800F900831603132008F6022108031C210F5A
:100E58002E2F2F2FF7022208031C220F342F352F95
:100E6800F8022308031C230F3A2F3B2FF9027508B9
:100E78007902031D492F74087802031D492F73084E
:100E88007702031D492F72087602031C4C2F4D2F41
:100E9800532F831203130712B401A801A9010800F4
:100EA800F7007708F20001308A11E2278A118312CD
:100EB80003134B08F5004A08F40002308A15472747
:100EC8008A11831203134D08F5004C08F40004300E
:100ED8008A1547278A11831203134F08F5004E0815
:100EE800F40006308A1547278A1183120313510824
:100EF800F5005008F40008308A1547278A11AA30EF
:100F0800F20000308A11E2278A11080083120313C5
:100F180040080319902F912FB62F720884002D30A6
:100F28007A02031C982F9A2F01309B2F00308313CD
:100F38008000730884002D304202031CA42FA62FC2
:100F48000130A72F00308000740884002D30410242
:100F5800031CAF2FB12F0130B22F00308000C00129
:100F68000130B72F00300800831603130F088F399C
:100F780060388F0018308316031788008901E8301D
:100F880083160313850038308600033087000D3040
:100F9800831203139F008030831603139F000D30C4
:100FA800F300FB30F200F20BD72FF30BD72FDC2F17
:100FB800831203138501860187010800F300831655
:100FC80003178C18E82FE92FE32F730883120317F0
:100FD8008D0072088C00831603178C130C158B1365
:100FE80055308D00AA308D008C148C18FC2FFD2FE5
:080FF800F92F0C118B17080002
:101E340064008001840A04060319003404061B2F7D
:101E44001D340134AA340034FF340034883404349B
:101E5400033483160313811281110108F8390238FF
:101E6400810006308312031381008B1608001E3490
:101E740000342D3400343C34003478340034FF34DE
:101E8400FF340A3400340A340034F6007408F200D3
:101E940076088A11E2278A157508F2007608013E51
:101EA4008A11E2278A150800831203133F08031DD1
:101EB4005C2F5D2F642FFB01FA01C201C101C00137
:101EC4000130BF0008003030831203139000123039
:101ED4008F0038308E00831603130C140B178B17E6
:101EE40083120313101408007E088A007F088200FE
:101EF4008A1576278A158000840A04087D0603194A
:101F04000034FF0A0319FE0A7A2FF200831603171E
:101F14008C188D2F8E2F882F7208831203178D0033
:101F2400831603178C130C14831203170C08080070
:101F3400F90079088A1587278A15F500F6017508CE
:101F4400F7007608F8007908013E8A1587278A1574
:101F5400F500F6017508F600F5017508F704760832
:101F6400F8047808F4007708F3000800F500750811
:101F7400F40002300310F40DFF3E031DBC2F831246
:101F840003131F08C33974049F000330F400F40BD7
:101F9400C92F831203139F149F18D12FD22FCE2F32
:101FA4001E08F300831603131E08F20008008312B0
:101FB40003133408031DDF2FE02FFF2F0716270814
:101FC40083160313A3008312031326088316031333
:101FD400A20083120313250883160313A10083129E
:101FE4000313240883160313A00073088312031336
:0C1FF400A9007208A8000130B400080029
:02400E00E423A9
:00000001FF
