:040000008A110B282E
:10000800FE00030EF0000A08F1008A157B2C8A1105
:100018000D288313D830FD000B30FE005930FF0047
:10002800C23084008A1527238A118A11FF278A1172
:10003800ED00A0308400C2308A11F7278A112030E1
:10004800840047308A11F7278A11FA01FB018301DE
:100058008A112E288A1504248A11C830831603139E
:10006800D4000030D500F030D2000030D300BE30CC
:10007800D0000030D100FA30CE000030CF0001307F
:100088008A1546238A1183120313ED0004308A155A
:100098008D238A11730883160313C1007208C000E8
:1000A800003083120313CF000030CE000330CD00A0
:1000B800FF30CC00831603134008F2004108F30018
:1000C800F401F5010030F9000030F8000130F700C4
:1000D8006830F6008A1533248A11750883120313D1
:1000E800D3007408D2007308D1007208D0008A15B2
:1000F80081258A11831203134C08783E8316031353
:10010800BC00831203134D080318013E003E8316FA
:100118000313BD00DA0183120313051485140515B2
:100128000516831603135A08031D9B289C28A52827
:10013800831203138718A128A228BC280130C20003
:10014800BC2803305A06031DAA28AB28BC288312F2
:1001580003134203031DB128B228BC288718B52809
:10016800B628BC280130C1000A3083160313DA0010
:100178000B3083120313E7002630E6005D30E500FC
:10018800E50BC428E60BC428E70BC428000083123B
:10019800031305108510051105120B308312031384
:1001A800E7002630E6005D30E500E50BD928E60BD0
:1001B800D928E70BD9280000013083160313DA0782
:1001C8000A305A02031CE928EA288F28B830F200BE
:1001D8000B30F3008A15AF238A118A11AD278A11D3
:1001E8008A1512238A118A1591278A119F298A1143
:1001F800AD278A118A1188248A1104308A158D2323
:100208008A11730883160313C1007208C0000030F6
:1002180083120313CF000030CE000330CD00FF302F
:10022800CC00831603134008F2004108F300F401E0
:10023800F5010030F9000030F8000130F7006830AF
:10024800F6008A1533248A11750883120313D30024
:100258007408D2007308D1007208D0008A1581256D
:100268008A11831203134C08783E83160313BC00CB
:10027800831203134D080318013E003E831603132F
:10028800BD008312031387184A294B2988298A1528
:10029800B9268A1183160313D8005808031955295B
:1002A80056295D29013083120313B6000130B500C9
:1002B8008829013083120313ED0705306D02031CF2
:1002C800662967296829ED016D08F20001308A1551
:1002D8006F238A11882905108510051105169B2999
:1002E80005108510051505129B29051085140511A3
:1002F80005129B2905148510051105129B29051067
:100308008514051505129B29831203136D08003AFD
:1003180003196F29013A03197429033A0319792932
:10032800013A03197E29073A031983299B29643066
:100338008A119A268A11831203134108031DA529DD
:10034800A629FB28831203138718AB29AC29CD29CA
:100358008A15B9268A1183160313D9005908031977
:10036800B629B729BE29013083120313B60001301C
:10037800B500CD29031083120313051D03140318B8
:10038800C629CA29831203130515CD29831203131D
:1003980005118A11AD278A118A1188248A118312BE
:1003A800031336080319D929DA29202B3808031D25
:1003B800DE29DF29102A3A08031DE329E429102A37
:1003C8003908031DE829E929102A3708031DED29F2
:1003D800EE29102A87152F0883160313AF008312FE
:1003E80003132E0883160313AE00831203132D087C
:1003F80083160313AD00831203132C08831603130B
:10040800AC00013083120313B700E830F200033068
:10041800F3008A15AF238A118312031337080319CF
:10042800162A172A282B831603134A088312031344
:10043800E500831603134B0883120313E600E70154
:10044800E8012C08E9002D08EA002E08EB002F0827
:10045800EC00831603132C0883120313E902831696
:1004680003132D08031C2D0F3A2A3D2A8312031368
:10047800EA02831603132E08031C2E0F442A472A68
:1004880083120313EB02831603132F08031C2F0F89
:100498004E2A512A83120313EC0283160313831284
:1004A800031368086C02031D632A67086B02031DA7
:1004B800632A66086A02031D632A65086902031C29
:1004C800662A672A692A0130B8003408031D6D2A94
:1004D8006E2AEA2A2C18712A722A742A0515752A96
:1004E8000511831603133308320431043004031D45
:1004F8007E2A7F2A982A831203132F088316031350
:10050800B300831203132E0883160313B200831259
:1005180003132D0883160313B100831203132C0849
:1005280083160313B000F72A3C0883120313E5006F
:10053800831603133D0883120313E600E701E8015D
:100548002C08E9002D08EA002E08EB002F08EC0023
:1005580083160313300883120313E9028316031367
:100568003108031C310FB92ABC2A83120313EA028B
:10057800831603133208031C320FC32AC62A8312B8
:100588000313EB02831603133308031C330FCD2A1E
:10059800D02A83120313EC02831603138312031366
:1005A80068086C02031DE22A67086B02031DE22A31
:1005B80066086A02031DE22A65086902031CE52A27
:1005C800E62AF72A0130B9000515F72A0030831604
:1005D8000313B3000030B2000030B1000030B000A7
:1005E80083120313051183124008E500E60166082B
:1005F800831603134F02031D072B83120313650889
:10060800831603134E02031C0A2B0B2B1C2B83127D
:1006180003134008E500831603135108031D182B24
:10062800500883120313650203181B2B1C2B282B5D
:1006380001308312BA00282B37080319242B252BE5
:10064800282BB701BB018711380803192C2B2D2B38
:100658002E2BB70139080319322B332B342BB70152
:100668003708031D382B392B632B4008E500E601BA
:100678006608831603135302031D482B83120313C2
:100688006508831603135202031C4B2B4C2B5D2B5E
:10069800831203134008E500831603135508031D4E
:1006A800592B540883120313650203185C2B5D2B26
:1006B800602B01308312BA0087118510C62B851470
:1006C80087152808E5002908E6002A08E7002B080E
:1006D800E80083160313240883120313E502831624
:1006E80003132508031C250F7A2B7D2B8312031374
:1006F800E602831603132608031C260F842B872B78
:1007080083120313E702831603132708031C270F1A
:100718008E2B912B83120313E80283160313831283
:1007280003136808031DA72B6708031DA72B4E306A
:100738006602031DA32B20306502031DA32B031C97
:10074800A62BA72BC62B831203132B088316031380
:10075800A700831203132A0883160313A600831223
:100768000313290883160313A5008312031328080B
:1007780083160313A400C830F2000030F3008A1572
:10078800AF238A11831203133A080319CC2BCD2BFC
:10079800422C2708260425042404031DD42BD52B1A
:1007A800DE2B2F08A7002E08A6002D08A5002C0870
:1007B800A4003E2C2C08E5002D08E6002E08E700D2
:1007C8002F08E8002408E5022508031C250FED2B57
:1007D800EE2BE6022608031C260FF32BF42BE70268
:1007E8002708031C270FF92BFA2BE8026808031DBA
:1007F8000B2C6708031D0B2C6608031D0B2C0A30F5
:100808006502031D072C031C0A2C0B2C3E2C83129B
:1008180003134008E500E601660883160313530234
:10082800031D1C2C8312031365088316031352023D
:10083800031C1F2C202C312C831203134008E500C5
:10084800831603135508031D2D2C54088312031314
:1008580065020318302C312C352C01308312BA0074
:10086800362CBA010030A7000030A6000030A500E1
:100878000030A40083120313B701812C2708260433
:10088800250424040319492C4A2C812C2C08E50042
:100898002D08E6002E08E7002F08E8002408E502E6
:1008A8002508031C250F592C5A2CE6022608031C80
:1008B800260F5F2C602CE7022708031C270F652CE6
:1008C800662CE8026808031D772C6708031D772C3F
:1008D8006608031D772C0A306502031D732C031C60
:1008E800762C772C812C003083120313A70000305C
:1008F800A6000030A5000030A40064308A119A26B2
:100908008A11A6298A110B2883120313E2010330E6
:100918008A158D238A11720883160313BA070318E0
:10092800BB0A7308BB07013083120313E2071030B8
:100938006202031CA02CA12C8B2C831603133A0EE5
:100948000F39BE003B0EF039BE043B0E0F39BF0015
:10095800BA01BB01003083120313CF000030CE0070
:100968000330CD00FF30CC00831603133E08F2009D
:100978003F08F300F401F5010030F9000030F800F9
:100988000030F700EB30F6008A1533248A11750819
:1009980083120313D3007408D2007308D1007208BD
:1009A800D0008A1581258A11831203134C08553EFD
:1009B800C0003C08031DE12CE22CED2C3D08031D72
:1009C800E62CE72CED2C8A15E5228A118A15F322EC
:1009D8008A114630F2004530F3004430F4008A159D
:1009E800D6238A11003A0319FA2CFB2C0F2D8312F7
:1009F800031345080319012D022D032DB5014608DF
:100A0800031D072D082D0F2D4508031D0C2D0D2D39
:100A18000F2D0130B500831203133508360603196C
:100A2800162D172D632D2308220421042004031DED
:100A38001E2D1F2D282D2B08A3002A08A2002908E7
:100A4800A1002808A000A32D2808DA002908DB0047
:100A58002A08DC002B08DD002008DA022108031C24
:100A6800210F372D382DDB022208031C220F3D2DC4
:100A78003E2DDC022308031C230F432D442DDD02E9
:100A88005D08031D562D5C08031D562D27305B029B
:100A9800031D522D10305A02031D522D031C552DD3
:100AA800562DA32D003083120313A3000030A2009B
:100AB8000030A1000030A0003508B600A32D23089F
:100AC80022042104200403196A2D6B2DA32D280864
:100AD800DA002908DB002A08DC002B08DD002008E2
:100AE800DA022108031C210F7A2D7B2DDB02220854
:100AF800031C220F802D812DDC022308031C230FE9
:100B0800862D872DDD025D08031D992D5C08031DC8
:100B1800992D27305B02031D952D10305A02031DB5
:100B2800952D031C982D992DA32D003083120313A6
:100B3800A3000030A2000030A1000030A000831202
:100B48000313440834060319AA2DAB2DF12D3008E0
:100B58003104031DB02DB12DB62D2908B100280888
:100B6800B0002F2E3008DA003108DB00DC01DD018F
:100B78002808DE002908DF002A08E0002B08E10029
:100B88005A08DE025B08031C5B0FCB2DCC2DDF025D
:100B98005C08031C5C0FD12DD22DE0025D08031CFC
:100BA8005D0FD72DD82DE1026108031DEA2D6008DD
:100BB800031DEA2D27305F02031DE62D10305E026B
:100BC800031DE62D031CE92DEA2D2F2E8312031396
:100BD800B001B1014408B4002F2E300831040319C4
:100BE800F62DF72D2F2E3008DA003108DB00DC0156
:100BF800DD012808DE002908DF002A08E0002B08AC
:100C0800E1005A08DE025B08031C5B0F0C2E0D2E58
:100C1800DF025C08031C5C0F122E132EE0025D0835
:100C2800031C5D0F182E192EE1026108031D2B2EDF
:100C38006008031D2B2E27305F02031D272E10305E
:100C48005E02031D272E031C2A2E2B2E2F2E831205
:100C58000313B001B101831203132808DA0029082D
:100C6800DB002A08DC002B08DD0083160313340898
:100C780083120313DA02831603133508031C350F96
:100C8800462E492E83120313DB02831603133608FC
:100C9800031C360F502E532E83120313DC028316C7
:100CA80003133708031C370F5A2E5D2E83120313C4
:100CB800DD0283160313831203135D08031D732ECD
:100CC8005C08031D732E03305B02031D6F2EE83092
:100CD8005A02031D6F2E031C722E732E992E01309B
:100CE80083120313AC07003003180130AD0700303E
:100CF80003180130AE07003003180130AF072B0886
:100D080083160313B700831203132A0883160313E9
:100D1800B60083120313290883160313B500831240
:100D28000313280883160313B4000800831203135F
:100D3800E4006408DC00DD01DE01DF012808E000D2
:100D48002908E1002A08E2002B08E30083160313B0
:100D5800200883120313E002831603132108031CDF
:100D6800210FB72EBA2E83120313E1028316031341
:100D78002208031C220FC12EC42E83120313E20281
:100D8800831603132308031C230FCB2ECE2E8312A6
:100D98000313E30283160313831203135F0863022A
:100DA800031DE02E5E086202031DE02E5D0861024D
:100DB800031DE02E5C086002031CE32EE42EAC2F1A
:100DC8002B0883160313A300831203132A08831620
:100DD8000313A20083120313290883160313A10027
:100DE80083120313280883160313A000F4010030AC
:100DF8008A1534238A11831203134008DC00DD01AD
:100E08005C08DA005D08DB008A1525278A110430A2
:100E1800F40000308A1534238A110030831203133A
:100E2800CF000030CE000030CD003C30CC002F0881
:100E3800D3002E08D2002D08D1002C08D0008A1526
:100E480081258A11831203134D08DB004C08DA0050
:100E58008A1525278A110830F40000308A153423B2
:100E68008A11831603133D0883120313DB008316CC
:100E780003133C0883120313DA008A1525278A1105
:100E88000C30F40000308A1534238A1183120313BE
:100E98006D08DC00DD015C08DA005D08DB008A15FE
:100EA80025278A11F40101308A1534238A11043068
:100EB8008A1546238A1183120313DC00DD015C08BE
:100EC800DA005D08DB008A1525278A110430F40052
:100ED80001308A1534238A118312031346088A15B0
:100EE80002238A110630F40001308A1534238A114E
:100EF8008312031345088A1502238A110830F40067
:100F080001308A1534238A118312031344088A1581
:100F180002238A110A30F40001308A1534238A1119
:100F28008312031336088A1502238A1183120313C6
:100F380037088A1502238A118312031339088A1580
:100F480002238A11831203133A088A1502238A118D
:100F580008008312031332080319B32FB42FF62F96
:100F6800831603133808F2003908F300F401F50179
:100F7800831203132808F6002908F7002A08F80046
:100F88002B08F900831603132808F6022908031C06
:100F9800290FCF2FD02FF7022A08031C2A0FD52F8D
:100FA800D62FF8022B08031C2B0FDB2FDC2FF9029E
:100FB80075087902031DEA2F74087802031DEA2FC9
:100FC80073087702031DEA2F72087602031CED2FBF
:100FD800EE2FF62F831203130712B20183160313A1
:100FE800B801B901080064008001840A04060319E5
:080FF80000340406F82F033455
:1015CA0083160313811281110108F8390338810047
:1015DA0006308312031381008B160800831203134B
:1015EA003C08031DF92AFA2A012BFB01FA01BF0163
:1015FA00BE01BD010130BC000800F40074080319E3
:10160A00072B082B0D2B31308A15E7258A15112B4C
:10161A0030308A15E7258A15080030308312031303
:10162A009000FF308F000E308E00831603130C14C7
:10163A000B178B1783120313101408007E088A00F5
:10164A007F0882008A1523238A158000840A0408E9
:10165A007D0603190034FF0A0319FE0A272BF50039
:10166A007508031D392B3A2B3E2B7408803EF60071
:10167A00412B7408C03EF60076088A1550268A1552
:10168A000800F200831603178C184C2B4D2B472B9E
:10169A007208831203178D00831603178C130C1418
:1016AA00831203170C0808001E3400342D3400344A
:1016BA003C34003478340034FF34FF341034273497
:1016CA001D340134AA340034E6340034C8340034FA
:1016DA000A340034F300831603178C18752B762B03
:1016EA00702B7308831203178D0072088C008316FF
:1016FA0003178C130C158B1355308D00AA308D00EF
:10170A008C148C18892B8A2B862B0C118B170800AA
:10171A00F5007508F40002300310F40DFF3E031DB6
:10172A00912B831203131F08C33974049F000630D8
:10173A00F400F40B9E2B0000831203139F149F18CE
:10174A00A72BA82BA42B1E08F300831603131E082D
:10175A00F2000800831203133208031DB52BB62BBF
:10176A00D52B07162B0883160313AB00831203131A
:10177A002A0883160313AA0083120313290883165F
:10178A000313A90083120313280883160313A8005E
:10179A007308B9007208B800013083120313B2004B
:1017AA000800831203133D080319DC2BDD2B022CDE
:1017BA00720884002D307A02031CE42BE62B0130D8
:1017CA00E72B003083138000730884002D303F021A
:1017DA00031CF02BF22B0130F32B0030800074082D
:1017EA0084002D303E02031CFB2BFD2B0130FE2B07
:1017FA0000308000BD010130032C00300800703039
:10180A00831603138F04183083160317880089017F
:10181A00E8308316031385003830860003308700CA
:10182A000D30831203139F008030831603139F0029
:10183A001A30F300F830F200F20B212CF30B212CB2
:10184A00000083120313850186018701871207139B
:10185A00061086100611871307120800003083123B
:10186A000313CB000030CA000030C9000030C800A2
:10187A00721C402C412C582C7608C8077708031193
:10188A000318013E03194A2CC907780803110318E3
:10189A00013E0319512CCA07790803110318013EA6
:1018AA000319582CCB070130C7000310F60DF70DAA
:1018BA00F80DF90DC70B5A2C01300310F50CF40C76
:1018CA00F30CF20CFF3E031D622C750874047304BA
:1018DA007204031D712C722C3D2C4B08F5004A082A
:1018EA00F4004908F3004808F200080083120313C1
:1018FA000C1C802C812C942C0130A8070030031872
:10190A000130A907003003180130AA070030031874
:10191A000130AB070C10FF308F000E308E000B1D0C
:10192A00972C982CBE2C063081000B113C08031909
:10193A009F2CA02CBE2C861EA32CA42CA62C0130D6
:10194A00FA07061EA92CAA2CAC2C0130BF07861D4B
:10195A00AF2CB02CB22C0130BE070130FB0732305D
:10196A007B02031CB92CBA2CBE2CBC010130BD0071
:10197A008B1271088A00700E8300FE0E7E0E09001B
:10198A0083120313CC01CA1FCB2CCC2CD32CC9092C
:10199A00CA09C90A0319CA0A0130CC00C81FD62CC1
:1019AA00D72CDC2CC709C809C70A0319C80A470873
:1019BA0048040319E12CE22C0F2D0130CB00EE2C48
:1019CA0001300310C70DC80DFF3E031DE62C013080
:1019DA00CB07C81FF12CF22CE52C48084A02031D3C
:1019EA00F82C47084902031CFB2CFC2C022D470843
:1019FA00C9024808031CCA03CA0201300310C80CF2
:101A0A00C70CFF3E031D032D0130CB02031D0E2D13
:101A1A000F2DF22C4C080319132D142D192DC90959
:101A2A00CA09C90A0319CA0A4A08C8004908C700E4
:101A3A000800F701F31F222D232D2A2DF209F3099D
:101A4A00F20A0319F30A0130F700F51F2D2D2E2D86
:101A5A00352DF409F509F40A0319F50A0130F706D8
:101A6A00F801F9017208730403193C2D3D2D722DFA
:101A7A000130F600492D01300310F20DF30DFF3E3F
:101A8A00031D412D0130F607F31F4C2D4D2D402D1E
:101A9A0001300310F80DF90DFF3E031D4E2D73089A
:101AAA007502031D5A2D72087402031C5D2D5E2DEA
:101ABA00652D7208F4027308031CF503F502781405
:101ACA0001300310F30CF20CFF3E031D662D0130AA
:101ADA00F602031D712D722D4D2D77080319762DEF
:101AEA00772D7C2DF809F909F80A0319F90A7908FA
:101AFA00F3007808F2000800003083120313D800BC
:101B0A000030D7000030D6000030D5004F084E0410
:101B1A004D044C040319922D932DDE2D0130D9006A
:101B2A00A12D0130D4000310CC0DCD0DCE0DCF0D5B
:101B3A00D40B982D0130D907CF1FA42DA52D962D92
:101B4A000130D4000310D50DD60DD70DD80DD40B06
:101B5A00A72D4F085302031DBC2D4E085202031D28
:101B6A00BC2D4D085102031DBC2D4C085002031C0C
:101B7A00BF2DC02DCF2D4C08D0024D08031C4D0F90
:101B8A00D1024E08031C4E0FD2024F08031C4F0FFE
:101B9A00D302551401300310CF0CCE0CCD0CCC0C53
:101BAA00FF3E031DD02D0130D902031DDD2DDE2D90
:101BBA00A52D5808CF005708CE005608CD00550865
:101BCA00CC000800F300831203138716F31BEE2DD3
:101BDA00F22D831203138717F52D8312031387132C
:101BEA00731BF82DFC2D831203130615FF2D831288
:101BFA0003130611F31A022E062E831203138614F8
:101C0A00092E831203138610731A0C2E102E8312B8
:101C1A0003130614132E8312031306100717152E27
:101C2A008312031307134230F200F20B1A2E00003C
:101C3A00F319202E242E831203138717272E8312BB
:101C4A000313871373192A2E2E2E831203130615D4
:101C5A00312E831203130611F318342E382E8312F1
:101C6A00031386143B2E83120313861073183E2E19
:101C7A00422E831203130614452E831203130610F1
:101C8A000717472E8312031307134230F200F20B91
:101C9A004C2E00000800F300831203138712F31B73
:101CAA00572E5B2E8312031387175E2E831203139C
:101CBA008713731B612E652E831203130615682E74
:101CCA00831203130611F31A6B2E6F2E831203135A
:101CDA008614722E831203138610731A752E792EA8
:101CEA008312031306147C2E83120313061007179C
:101CFA007E2E8312031307134230F200F20B832E57
:101D0A000000F319892E8D2E831203138717902E44
:101D1A008312031387137319932E972E83120313B7
:101D2A0006159A2E831203130611F3189D2EA12E5F
:101D3A00831203138614A42E8312031386107318B6
:101D4A00A72EAB2E831203130614AE2E831203138F
:101D5A0006100717B02E8312031307134230F2003E
:101D6A00F20BB52E00000800F8018312031387183E
:101D7A00BF2EC02E232F8230F300DD30F200F20B8B
:101D8A00C42EF30BC42EC92E831203138718CE2E2A
:101D9A00CF2E232FF601F7011430F4000030F5009E
:101DAA000B2F1A30F300F830F200F20BDA2EF30B95
:101DBA00DA2E00000130F6070318F70A0030F70799
:101DCA0075087702031DEB2E74087602031CEE2EAB
:101DDA00EF2E0B2F0130F800FB2E1A30F300F830EB
:101DEA00F200F20BF62EF30BF62E00008312031309
:101DFA00871C002F012FF22E8230F300DD30F20013
:101E0A00F20B052FF30B052F0A2F112F8312031341
:101E1A00871C102F112FD62E7808031D152F162F69
:101E2A00212F8230F300DD30F200F20B1A2FF30B70
:101E3A001A2F1F2F0030242F0130242F00300800C2
:101E4A0083120313DB1F2A2F2B2F362F2D308A15CF
:101E5A00E7258A1583120313DA09DB09DA0A03195B
:101E6A00DB0A5B08803AFF0083307F02031D3F2FA5
:101E7A00E8305A02031C422F432F492FE7308312BE
:101E8A000313DA000330DB006430F2000030F300A1
:101E9A00831203135B08F5005A08F4008A151E25FD
:101EAA008A157208303E8A15E7258A150A30831288
:101EBA000313C7000030C8000A30F2000030F300F4
:101ECA005B08F5005A08F4008A151E258A1573085E
:101EDA0083120313CA007208C9008A15C5248A1519
:101EEA00831203134708303E8A15E7258A150A30FC
:101EFA0083120313C7000030C8005B08CA005A08DF
:101F0A00C9008A15C5248A15831203134708303E6F
:101F1A008A15E7258A1508002730F500F530F40000
:101F2A00F40B952FF50B952F831203138712871342
:101F3A000611861406140717A22F83120313071318
:101F4A000D30F500FB30F400F40BA92FF50BA92F87
:101F5A00AE2F831203130717B22F8312031307132B
:101F6A000330F5009730F400F40BB92FF50BB92FB5
:101F7A00BE2F831203130717C22F831203130713EB
:101F8A000330F5009730F400F40BC92FF50BC92F75
:101F9A00CE2F831203138713061186140610071710
:101FAA00D62F8312031307130330F5009730F4007A
:101FBA00F40BDD2FF50BDD2FE22F28308A15502682
:101FCA008A1508308A1550268A1501308A15502636
:101FDA008A150630F5003030F400F40BF22FF50BB9
:101FEA00F22F000006308A1550268A150C308A1501
:061FFA0050268A150800C4
:02400E00E423A9
:00000001FF
