:040000008A110B282E
:10000800FE00030EF0000A08F1008A11EF2E8A1193
:100018000D288313CE30FD000E30FE00FA30FF00AD
:10002800BE3084008A151F278A116F30FD000E30FC
:10003800FE00C730FF00683084008A151F278A1128
:10004800A0308400BE308A11F8278A11203084003D
:1000580047308A11F8278A11FA01FB0183018A11B6
:1000680035288A15D8278A116E3083120313C700E2
:100078006C30C8006A30C9006830CA00CC30CB0088
:100088008A1156268A11003A031D4B284C287F28CE
:1000980083120313EE019630EC000030ED00FF30C0
:1000A800EA000030EB00AA30E8000030E9001D301B
:1000B80083160313CC000130CD00831203136D089F
:1000C800C8006C08C7006B08CA006A08C90069083C
:1000D800CC006808CB00831603134D088312031362
:1000E800CE00831603134C0883120313CD006E0849
:1000F8008A1181278A1104308A1568278A117308A2
:1001080083160313BD007208BC000030F9000030EC
:10011800F8000130F7006830F6003C08F2003D08AE
:10012800F300F401F5018A1139278A117508831241
:100138000313D3007408D2007308D1007208D000EA
:100148000030CF000030CE000330CD00FF30CC00AF
:100158008A11F0258A11831203134D08DB004C081D
:10016800DA00E830DC000330DD008A158A278A11BE
:10017800831203135A08783E83160313B8008312B8
:1001880003135B080318013E003E83160313B900EE
:10019800B830F2000B30F3008A15B1278A118A11A2
:1001A800A5268A118A150A278A118312031387182C
:1001B800DE28DF2800298A1184258A118316031373
:1001C800CE004E080319E928EA28F12801308312E5
:1001D8000313B6000130B50000290310831203137E
:1001E800051D03140318F928FD28831203130515A8
:1001F80000298312031305118A11A5268A11831673
:100208000313CF0110304F02031C0B290C290D29B1
:100218001C2903308A1568278A117208831603136C
:10022800B6070318B70A7308B7070130CF070629BE
:10023800360E0F39BA00370EF039BA04370E0F39B7
:10024800BB00B601B701003083120313CF000030A2
:10025800CE000330CD00FF30CC00831603133A08DC
:10026800F2003B08F300F401F5010030F90000301A
:10027800F8000030F700EB30F6008A1139278A11B0
:10028800750883120313D3007408D2007308D100D1
:100298007208D0008A11F0258A11831203134C08C2
:1002A800553EC0004008E0006D08031D5D296C083C
:1002B800600203186029612972292C1864296529AC
:1002C80072290310051E031403186B296F29831262
:1002D8000313051672298312031305123C08031D24
:1002E8007629772982293D08031D7B297C298229C3
:1002F8008A15CE268A118A15EB268A114630F20015
:100308004530F3004430F4008A11B7278A11003AC7
:1003180003198F299029A429831203134508031967
:10032800962997299829B5014608031D9C299D29D6
:10033800A4294508031DA129A229A4290130B50033
:1003480083120313350836060319AB29AC29F8299B
:100358002308220421042004031DB329B429BD293C
:100368002B08A3002A08A2002908A1002808A00039
:10037800382A2808E0002908E1002A08E2002B08AA
:10038800E3002008E0022108031C210FCC29CD2915
:10039800E1022208031C220FD229D329E2022308F2
:1003A800031C230FD829D929E3026308031DEB296D
:1003B8006208031DEB2927306102031DE72910306D
:1003C8006002031DE729031CEA29EB29382A0030BB
:1003D80083120313A3000030A2000030A1000030F4
:1003E800A0003508B600382A230822042104200476
:1003F8000319FF29002A382A2808E0002908E10003
:100408002A08E2002B08E3002008E0022108031C68
:10041800210F0F2A102AE1022208031C220F152A95
:10042800162AE2022308031C230F1B2A1C2AE302B4
:100438006308031D2E2A6208031D2E2A2730610235
:10044800031D2A2A10306002031D2A2A031C2D2AA4
:100458002E2A382A003083120313A3000030A2008A
:100468000030A1000030A0008312031344083406B2
:1004780003193F2A402A862A30083104031D452AD9
:10048800462A4B2A2908B1002808B000C42A300897
:10049800E0003108E100E201E3012808E40029084E
:1004A800E5002A08E6002B08E7006008E402610876
:1004B800031C610F602A612AE5026208031C620FAF
:1004C800662A672AE6026308031C630F6C2A6D2AF2
:1004D800E7026708031D7F2A6608031D7F2A273065
:1004E8006502031D7B2A10306402031D7B2A031C4E
:1004F8007E2A7F2AC42A83120313B001B10144085B
:10050800B400C42A3008310403198B2A8C2AC42A5F
:100518003008E0003108E100E201E3012808E400C6
:100528002908E5002A08E6002B08E7006008E4022D
:100538006108031C610FA12AA22AE5026208031CB4
:10054800620FA72AA82AE6026308031C630FAD2AD4
:10055800AE2AE7026708031DC02A6608031DC02AE1
:1005680027306502031DBC2A10306402031DBC2A13
:10057800031CBF2AC02AC42A83120313B001B10185
:100588008312031336080319CA2ACB2AEA2B380820
:10059800031DCF2AD02A012B3A08031DD42AD52AB5
:1005A800012B3908031DD92ADA2A012B3708031D24
:1005B800DE2ADF2A012B87152F0883160313AB00C9
:1005C800831203132E0883160313AA00831203133E
:1005D8002D0883160313A900831203132C0883160E
:1005E8000313A800013083120313B700E830F200A8
:1005F8000330F3008A15B1278A11831203133708D1
:100608000319072B082BF22B8316031346088312B2
:100618000313E00083160313470883120313E10052
:10062800E201E3012C08E4002D08E5002E08E600AD
:100638002F08E70083160313280883120313E40224
:10064800831603132908031C290F2B2B2E2B831227
:100658000313E502831603132A08031C2A0F352BFC
:10066800382B83120313E602831603132B08031C8B
:100678002B0F3F2B422B83120313E702831603131E
:100688008312031363086702031D542B6208660272
:10069800031D542B61086502031D542B6008640276
:1006A800031C572B582B5A2B0130B8003408031D54
:1006B8005E2B5F2BDB2B2C18622B632B652B051510
:1006C800662B0511831603132F082E042D042C0402
:1006D800031D6F2B702B892B831203132B08831692
:1006E8000313AF00831203132A0883160313AE0003
:1006F80083120313290883160313AD00831203130F
:10070800280883160313AC00F22B3808831203134E
:10071800E00083160313390883120313E100E20192
:10072800E3012808E4002908E5002A08E6002B0868
:10073800E700831603132C0883120313E4028316BD
:1007480003132D08031C2D0FAA2BAD2B83120313A3
:10075800E502831603132E08031C2E0FB42BB72BA8
:1007680083120313E602831603132F08031C2F0FAB
:10077800BE2BC12B83120313E702831603138312C4
:10078800031363086702031DD32B62086602031D67
:10079800D32B61086502031DD32B60086402031C78
:1007A800D62BD72BE92B0130B9000515F22B0030D9
:1007B80083160313AF000030AE000030AD000030E8
:1007C800AC00831203130511F22BF22B370803191F
:1007D800EE2BEF2BF22BB701BB01871183123808E0
:1007E8000319F72BF82BF92BB70139080319FD2B3F
:1007F800FE2BFF2BB7013A080319032C042C512CAC
:100808002708260425042404031D0B2C0C2C152C66
:100818002F08A7002E08A6002D08A5002C08A40064
:100828004D2C2C08E0002D08E1002E08E2002F08CE
:10083800E3002408E0022508031C250F242C252C9E
:10084800E1022608031C260F2A2C2B2CE20227087B
:10085800031C270F302C312CE3026308031D422CA4
:100868006208031D422C6108031D422C0A306002F5
:10087800031D3E2C031C412C422C4D2C83120313C8
:10088800BA010030A7000030A6000030A5000030F3
:10089800A40083120313B701902C2708260425040B
:1008A80024040319582C592C902C2C08E0002D08EE
:1008B800E1002E08E2002F08E3002408E0022508E2
:1008C800031C250F682C692CE1022608031C260F3F
:1008D8006E2C6F2CE2022708031C270F742C752C32
:1008E800E3026308031D862C6208031D862C610839
:1008F800031D862C0A306002031D822C031C852CE4
:10090800862C902C003083120313A7000030A60019
:100918000030A5000030A400831203133708031D1C
:10092800962C972CB42C4008E000E10161086B027A
:10093800031DA02C60086A02031CA32CA42CAF2C56
:100948004008E0006D08031DAB2C6C08600203181A
:10095800AE2CAF2CB12C0130BA0087118510172DA1
:10096800851487152808E0002908E1002A08E20014
:100978002B08E30083160313200883120313E002F5
:10098800831603132108031C210FCB2CCE2C8312B2
:100998000313E102831603132208031C220FD52C2C
:1009A800D82C83120313E202831603132308031CB3
:1009B800230FDF2CE22C83120313E30283160313A5
:1009C800831203136308031DF82C6208031DF82C17
:1009D8004E306102031DF42C20306002031DF42CFC
:1009E800031CF72CF82C172D831203132B088316DE
:1009F8000313A300831203132A0883160313A20008
:100A080083120313290883160313A1008312031307
:100A1800280883160313A000C830F2000030F30042
:100A28008A15B1278A11831203132808E0002908C0
:100A3800E1002A08E2002B08E300831603133008BC
:100A480083120313E002831603133108031C310FCA
:100A58002E2D312D83120313E1028316031332085E
:100A6800031C320F382D3B2D83120313E202831629
:100A780003133308031C330F422D452D8312031330
:100A8800E30283160313831203136308031D5B2D0C
:100A98006208031D5B2D03306102031D572DE830EA
:100AA8006002031D572D031C5A2D5B2DD9280130D8
:100AB80083120313AC07003003180130AD07003070
:100AC80003180130AE07003003180130AF072B08B8
:100AD80083160313B300831203132A088316031320
:100AE800B20083120313290883160313B10083127B
:100AF8000313280883160313B000D9288A110B287A
:100B0800F8018312031387188A2D8B2DEE2D82305E
:100B1800F300DD30F200F20B8F2DF30B8F2D942DA7
:100B2800831203138718992D9A2DEE2DF601F701DC
:100B38001430F4000030F500D62D1A30F300F830E8
:100B4800F200F20BA52DF30BA52D00000130F607DE
:100B58000318F70A0030F70775087702031DB62D4A
:100B680074087602031CB92DBA2DD62D0130F80071
:100B7800C62D1A30F300F830F200F20BC12DF30B3A
:100B8800C12D000083120313871CCB2DCC2DBD2D46
:100B98008230F300DD30F200F20BD02DF30BD02DB4
:100BA800D52DDC2D83120313871CDB2DDC2DA12D05
:100BB8007808031DE02DE12DEC2D8230F300DD30A7
:100BC800F200F20BE52DF30BE52DEA2D0030EF2DA9
:100BD8000130EF2D00300800003083120313D800D5
:100BE8000030D7000030D6000030D5004F084E0442
:100BF8004D044C040319012E022E4D2E0130D9004C
:100C0800102E0130D4000310CC0DCD0DCE0DCF0D1C
:100C1800D40B072E0130D907CF1F132E142E052E03
:100C28000130D4000310D50DD60DD70DD80DD40B37
:100C3800162E4F085302031D2B2E4E085202031D79
:100C48002B2E4D085102031D2B2E4C085002031C5D
:100C58002E2E2F2E3E2E4C08D0024D08031C4D0F71
:100C6800D1024E08031C4E0FD2024F08031C4F0F2F
:100C7800D302551401300310CF0CCE0CCD0CCC0C84
:100C8800FF3E031D3F2E0130D902031D4C2E4D2E71
:100C9800142E5808CF005708CE005608CD00550826
:100CA800CC00080000308A11E5278A11AA3A0319F6
:100CB8005E2E5F2E612E0030A42E83120313470888
:100CC800840001308A11E5278A11831380000230DD
:100CD8008A152C278A118312031348088400730885
:100CE80083138000840A7408800004308A152C2736
:100CF8008A11831203134908840073088313800040
:100D0800840A7408800006308A152C278A118312F9
:100D180003134A088400730883138000840A740844
:100D2800800008308A152C278A11831203134B0878
:100D38008400730883138000840A740880000130DB
:100D480008008312031332080319AB2EAC2EEE2EC3
:100D5800831603133408F2003508F300F401F50193
:100D6800831203132808F6002908F7002A08F80058
:100D78002B08F900831603132408F6022508031C20
:100D8800250FC72EC82EF7022608031C260FCD2EC6
:100D9800CE2EF8022708031C270FD32ED42EF902D3
:100DA80075087902031DE22E74087802031DE22EED
:100DB80073087702031DE22E72087602031CE52EE3
:100DC800E62EEE2E831203130712B20183160313C5
:100DD800B401B5010800831203130C1CF42EF52E80
:100DE800082F0130A807003003180130A907003088
:100DF80003180130AA07003003180130AB070C10A4
:100E0800FF308F000E308E000B1D0B2F0C2F322F52
:100E1800063081000B113C080319132F142F322FB1
:100E2800861E172F182F1A2F0130FA07061E1D2F9E
:100E38001E2F202F0130BF07861D232F242F262F7A
:100E48000130BE070130FB0732307B02031C2D2F17
:100E58002E2F322FBC010130BD008B1271088A0081
:100E6800700E8300FE0E7E0E0900003083120313FD
:100E7800CB000030CA000030C9000030C800721C26
:100E8800462F472F5E2F7608C807770803110318E7
:100E9800013E0319502FC907780803110318013EB2
:100EA8000319572FCA07790803110318013E0319BC
:100EB8005E2FCB070130C7000310F60DF70DF80DB4
:100EC800F90DC70B602F01300310F50CF40CF30C6F
:100ED800F20CFF3E031D682F750874047304720436
:100EE800031D772F782F432F4B08F5004A08F4008D
:100EF8004908F3004808F2000800F7007708F200F4
:100F080001308A154A278A11831203134808F5000D
:100F18004708F40002308A15DC268A11831203136D
:100F28004A08F5004908F40004308A15DC268A11BD
:100F3800831203134C08F5004B08F40006308A1599
:100F4800DC268A11831203134E08F5004D08F400BD
:100F580008308A15DC268A11AA30F20000308A157A
:100F68004A278A110800831203133D080319BD2F6D
:100F7800BE2FE32F720884002D307A02031CC52F80
:100F8800C72F0130C82F00308313800073088400F6
:100F98002D303F02031CD12FD32F0130D42F003026
:100FA8008000740884002D303E02031CDC2FDE2FE5
:100FB8000130DF2F00308000BD010130E42F003008
:100FC8000800F200831603178C18EB2FEC2FE62F7E
:100FD8007208831203178D00831603178C130C14E1
:100FE800831203170C08080064008001840A0406B1
:080FF800031900340406F92F6F
:101D8E00AA340034E6340034C834003403348316E5
:101D9E000313811281110108F839033881000630CE
:101DAE008312031381008B160800F6007408F200EC
:101DBE0076088A154A278A157508F2007608013EBC
:101DCE008A154A278A150800831203133C08031D3F
:101DDE00F12EF22EF92EFB01FA01BF01BE01BD015B
:101DEE000130BC0008001E3400342D3400343C3465
:101DFE00003478340034FF34FF34103427340A347E
:101E0E0000341D3401343030831203139000FF3040
:101E1E008F000E308E00831603130C140B178B17C6
:101E2E0083120313101408007E088A007F088200B4
:101E3E008A151B278A158000840A04087D0603195B
:101E4E000034FF0A0319FE0A1F2FF90079088A11C0
:101E5E00E5278A15F500F6017508F7007608F800F3
:101E6E007908013E8A11E5278A15F500F6017508F5
:101E7E00F600F5017508F7047608F8047808F40002
:101E8E007708F3000800F300831603178C18502F01
:101E9E00512F4B2F7308831203178D0072088C007D
:101EAE00831603178C130C158B1355308D00AA3027
:101EBE008D008C148C18642F652F612F0C118B17CD
:101ECE000800F5007508F40002300310F40DFF3E13
:101EDE00031D6C2F831203131F08C33974049F0054
:101EEE000630F400F40B792F0000831203139F14B5
:101EFE009F18822F832F7F2F1E08F3008316031344
:101F0E001E08F200080083120313DE01DF015A1CC3
:101F1E00912F922F982F5C08DE070318DF0A5D08B9
:101F2E00DF0701300310DC0DDD0DFF3E031D992F81
:101F3E0001300310DB0CDA0CFF3E031DA02F5A08F4
:101F4E005B04031DAB2FAC2F8E2F5F08DB005E08EA
:101F5E00DA000800831203133208031DB72FB82FBF
:101F6E00D72F07162B0883160313A700831203130C
:101F7E002A0883160313A600831203132908831657
:101F8E000313A50083120313280883160313A4005A
:101F9E007308B5007208B400013083120313B20047
:101FAE0008007030831603138F041830831603173E
:101FBE0088008901E83083160313850038308600C7
:101FCE00033087000D30831203139F008030831679
:101FDE0003139F001A30F300F830F200F20BF52FC6
:101FEE00F30BF52F00008312031385018601870181
:021FFE000800D9
:02400E00E423A9
:00000001FF
