:040000008A110B282E
:10000800FE00030EF0000A08F1008A15C82B8A11B9
:100018000D288A11FE278A11EE008313A030840070
:10002800CB308A1564228A114F3084006E308A15CD
:1000380064228A11FA01FB0183018A1123288A1597
:1000480051238A11043083120313EE0004308A15F9
:10005800DA228A11730883160313C9007208C800CC
:10006800003083120313A8000030A7000330A60055
:10007800FF30A500831603134808F2004908F3006F
:10008800F401F5010030F9000030F8000130F70004
:10009800E030F6008A1580238A117508831203134D
:1000A800AC007408AB007308AA007208A9008A158E
:1000B800CE248A11831203132508783E831603136E
:1000C800C4008312031326080318013E003E83165A
:1000D8000313C500CD0183120313051485140515F8
:1000E8000516831603134D08031D7B287C288528D5
:1000F800831203138718812882289C280130EA007C
:100108009C2802304D06031D8A288B289C288312C0
:1001180003136A03031D912892289C2887189528A1
:1001280096289C280130E9000A3083160313CD0075
:10013800023083120313C6000430C500BA30C4006D
:10014800C40BA428C50BA428C60BA4288312031328
:100158000510851005110512023083120313C6001D
:100168000430C500BA30C400C40BB828C50BB82881
:10017800C60BB828013083160313CD070A304D0289
:10018800031CC728C8286F28B830F2000B30F300CA
:100198008A15FC228A118A11B4278A118A15992294
:1001A8008A118A1572268A117D298A11B4278A1123
:1001B8008A11A0248A1104308A15DA228A11730858
:1001C80083160313C9007208C80000308312031392
:1001D800A8000030A7000330A600FF30A500831652
:1001E80003134808F2004908F300F401F501003050
:1001F800F9000030F8000130F700E030F6008A1509
:1002080080238A11750883120313AC007408AB00AD
:100218007308AA007208A9008A15CE248A118312CD
:1002280003132508783E83160313C40083120313AF
:1002380026080318013E003E83160313C5008312E7
:10024800031387182829292966298A1506268A1159
:1002580083160313CB004B080319332934293B2990
:10026800013083120313DF000130DE0066290130FC
:1002780083120313EE0705306E02031C4429452937
:100288004629EE016E08F20001308A15BC228A1157
:1002980066290510851005110516792905108510A0
:1002A80005150512792905108514051105127929F6
:1002B80005148510051105127929051085140515F1
:1002C80005127929831203136E08003A03194D2980
:1002D800013A03195229033A03195729013A031914
:1002E8005C29073A03196129792964308A15E126BE
:1002F8008A11831203136908031D83298429D928C5
:1003080083120313871889298A29AB298A15062697
:100318008A1183160313CC004C08031994299529D4
:100328009C29013083120313DF000130DE00AB2962
:10033800031083120313051D03140318A429A82905
:10034800831203130515AB298312031305118A11B0
:10035800B4278A118A11A0248A11831203135F0813
:100368000319B729B8292B2B6108031DBC29BD29FE
:10037800EF296308031DC129C229EF296208031D5B
:10038800C629C729EF296008031DCB29CC29EF29E5
:10039800871507155A0883160313B700831203132A
:1003A800590883160313B6008312031358088316DB
:1003B8000313B50083120313570883160313B400FD
:1003C800013083120313E000E830F2000330F30039
:1003D8008A15FC228A118312031360080319F52970
:1003E800F629372B6E08C4004407013E84008A159D
:1003F80000208A11C5008A1500208A11C600450808
:10040800C7004608C800C901CA015708CB005808E8
:10041800CC005908CD005A08CE00831603133408BF
:1004280083120313CB02831603133508031C350FFD
:100438001E2A212A83120313CC02831603133608BB
:10044800031C360F282A2B2A83120313CD02831686
:1004580003133708031C370F322A352A8312031374
:10046800CE0283160313831203134A084E02031D98
:10047800472A49084D02031D472A48084C02031D14
:10048800472A47084B02031C4A2A4B2A4D2A0130A7
:10049800E1005708C4005808C5005908C6005A08A2
:1004A800C70083160313340883120313C402831688
:1004B80003133508031C350F622A652A83120313B8
:1004C800C502831603133608031C360F6C2A6F2ADD
:1004D80083120313C602831603133708031C370F4E
:1004E800762A792A83120313C70283160313831209
:1004F80003134708031D8E2A4608031D8E2A450844
:10050800031D8E2A03304402031D8A2A031C8D2AE8
:100518008E2A912A831203130711831203135D088D
:10052800031D972A982A142B57189B2A9C2A9E2A1F
:1005380005159F2A0511831603133B083A0439044D
:100548003804031DA82AA92AC22A831203135A08A9
:1005580083160313BB00831203135908831603136E
:10056800BA0083120313580883160313B9008312C1
:100578000313570883160313B800212B440883126A
:100588000313C40083160313450883120313C5001D
:10059800C601C7015708C8005808C9005908CA0049
:1005A8005A08CB0083160313380883120313C802B2
:1005B800831603133908031C390FE32AE62A83122A
:1005C8000313C902831603133A08031C3A0FED2AD2
:1005D800F02A83120313CA02831603133B08031C71
:1005E8003B0FF72AFA2A83120313CB02831603134D
:1005F8008312031347084B02031D0C2B46084A02BB
:10060800031D0C2B45084902031D0C2B4408480206
:10061800031C0F2B102B212B0130E2000515212B79
:10062800003083160313BB000030BA000030B90055
:100638000030B800831203130511A5308312680235
:100648000318272B282B372B0130E300372B6008A2
:1006580003192F2B302B372BE00183160313CA0104
:10066800831203138711610803193B2B3C2B3D2B85
:10067800E00162080319412B422B432BE00160087B
:10068800031D472B482B532BB930680203184D2BF9
:100698004E2B502B0130E30087118510B62B8514A3
:1006A80087155308C4005408C5005508C6005608E5
:1006B800C70083160313240883120313C402831686
:1006C80003132508031C250F6A2B6D2B83120313B4
:1006D800C502831603132608031C260F742B772BD9
:1006E80083120313C602831603132708031C270F5C
:1006F8007E2B812B83120313C702831603138312E5
:1007080003134708031D972B4608031D972B4E30EC
:100718004502031D932B20304402031D932B031C19
:10072800962B972BB62B83120313560883160313A5
:10073800A70083120313550883160313A600831218
:100748000313540883160313A500831203135308D5
:1007580083160313A400C830F2000030F3008A1592
:10076800FC228A118312031363080319BC2BBD2BC7
:100778003E2C831603133308320431043004031D5E
:10078800C62BC72BE02B831203135A0883160313B7
:10079800B30083120313590883160313B20083129C
:1007A8000313580883160313B10083120313570861
:1007B80083160313B000392C831203135708C4009F
:1007C8005808C5005908C6005A08C70083160313FD
:1007D800300883120313C402831603133108031C61
:1007E800310FF72BFA2B83120313C5028316031359
:1007F8003208031C320F012C042C83120313C60287
:10080800831603133308031C330F0B2C0E2C83128F
:100818000313C70283160313831203134708031D28
:10082800232C4608031D232C4508031D232C0F30B9
:100838004402031D1F2C031C222C232C392CB930F5
:1008480083120313680203182A2C2B2C2E2C013038
:10085800E3002F2CE301003083160313B3000030AC
:10086800B2000030B1000030B00083120313E00181
:100878000510992C8316031333083204310430040D
:100888000319472C482C962C831203135708C400CD
:100898005808C5005908C6005A08C700831603132C
:1008A800300883120313C402831603133108031C90
:1008B800310F5F2C622C83120313C50283160313B6
:1008C8003208031C320F692C6C2C83120313C602E6
:1008D800831603133308031C330F732C762C8312EF
:1008E8000313C70283160313831203134708031D58
:1008F8008B2C4608031D8B2C4508031D8B2C0F30B1
:100908004402031D872C031C8A2C8B2C962C003048
:1009180083160313B3000030B2000030B10000307A
:10092800B000992C83120313051464308A15E1264C
:100938008A1184298A110B2883120313B701033003
:100948008A15DA228A11720883160313C20703185C
:10095800C30A7308C307013083120313B7071030A3
:100968003702031CB82CB92CA32C83160313420E90
:100978000F39C600430EF039C604430E0F39C700BD
:10098800C201C301003083120313A8000030A7007E
:100998000330A600FF30A500831603134608F200B3
:1009A8004708F300F401F5010030F9000030F800C1
:1009B8000030F700EB30F6008A1580238A1175089D
:1009C80083120313AC007408AB007308AA00720802
:1009D800A9008A15CE248A11831203132508553ECF
:1009E800E8006408031DF92CFA2C052D6508031D81
:1009F800FE2CFF2C052D8A156C228A118A157A2265
:100A08008A116D30F2006C30F3006B30F4008A15F7
:100A180023238A11003A0319122D132D302D831226
:100A280003136C080319192D1A2D1B2DDE016D08EF
:100A3800031D1F2D202D272D6C08031D242D252D6A
:100A4800272D0130DE006B0803192B2D2C2D2F2D9F
:100A58000130DC00302DDC01831203135E085F06D1
:100A68000319372D382DAE2D831603132F082E04A6
:100A78002D042C04031D412D422D5B2D83120313DD
:100A8800560883160313AF00831203135508831601
:100A98000313AE0083120313540883160313AD0027
:100AA80083120313530883160313AC00062E831214
:100AB80003135308B3005408B4005508B50056088A
:100AC800B600831603132C0883120313B30283168C
:100AD80003132D08031C2D0F722D752D831203137C
:100AE800B402831603132E08031C2E0F7C2D7F2DB2
:100AF80083120313B502831603132F08031C2F0F49
:100B0800862D892D83120313B602831603138312CD
:100B180003133608031D9F2D3508031D9F2D27300D
:100B28003402031D9B2D10303302031D9B2D031C23
:100B38009E2D9F2D062E003083160313AF00003024
:100B4800AE000030AD000030AC00831203135E0825
:100B5800DF00062E831603132F082E042D042C0401
:100B68000319B72DB82D062E831203135308B300AB
:100B78005408B4005508B5005608B6008316031388
:100B88002C0883120313B302831603132D08031CC6
:100B98002D0FCF2DD22D83120313B4028316031306
:100BA8002E08031C2E0FD92DDC2D83120313B5023A
:100BB800831603132F08031C2F0FE32DE62D831232
:100BC8000313B60283160313831203133608031D97
:100BD800FC2D3508031DFC2D27303402031DF82D8C
:100BE80010303302031DF82D031CFB2DFC2D062E9F
:100BF800003083160313AF000030AE000030AD00A4
:100C08000030AC00831203135C085D0603190D2E37
:100C18000E2E5A2E5208510450044F04031D152E4F
:100C2800162E1F2E5608D2005508D1005408D000A1
:100C38005308CF009A2E5308B3005408B40055083F
:100C4800B5005608B6004F08B3025008031C500FF1
:100C58002E2E2F2EB4025108031C510F342E352E80
:100C6800B5025208031C520F3A2E3B2EB602360824
:100C7800031D4D2E3508031D4D2E27303402031D4C
:100C8800492E10303302031D492E031C4C2E4D2EC5
:100C98009A2E003083120313D2000030D1000030A6
:100CA800D0000030CF005C08DD009A2E52085104B5
:100CB80050044F040319612E622E9A2E5308B30074
:100CC8005408B4005508B5005608B6004F08B302DA
:100CD8005008031C500F712E722EB4025108031CC9
:100CE800510F772E782EB5025208031C520F7D2E15
:100CF8007E2EB6023608031D902E3508031D902E51
:100D080027303402031D8C2E10303302031D8C2E25
:100D1800031C8F2E902E9A2E003083120313D200BC
:100D28000030D1000030D0000030CF008312031310
:100D38005308B3005408B4005508B5005608B60067
:100D4800831603133C0883120313B3028316031399
:100D58003D08031C3D0FB12EB42E83120313B402B9
:100D6800831603133E08031C3E0FBB2EBE2E8312B0
:100D78000313B502831603133F08031C3F0FC52E48
:100D8800C82E83120313B6028316031383120313A8
:100D98003608031DDE2E3508031DDE2E033034020F
:100DA800031DDA2EE8303302031DDA2E031CDD2E74
:100DB800DE2E042F013083120313D70700300318E7
:100DC8000130D807003003180130D9070030031864
:100DD8000130DA07560883160313BF008312031382
:100DE800550883160313BE00831203135408831691
:100DF8000313BD0083120313530883160313BC00A7
:100E0800080083120313B41F0A2F0B2F162F2D303F
:100E18008A1534258A1183120313B309B409B30A56
:100E28000319B40A3408803AFF0083307F02031D97
:100E38001F2FE8303302031C222F232F292FE730DE
:100E480083120313B3000330B4006430F20000309F
:100E5800F300831203133408F5003308F4008A15ED
:100E68006B248A11730883120313B6007208B50045
:100E78000A30A0000030A1000A30F2000030F30070
:100E88003408F5003308F4008A156B248A117308B6
:100E980083120313A3007208A2008A1512248A1170
:100EA800831203132108B8002008B7000A30A000F5
:100EB8000030A1003408A3003308A2008A151224C8
:100EC8008A11831203132108BA002008B9003608D2
:100ED800803AFF0080307F02031D742F01303502F5
:100EE800031C772F782F8E2F831203133508303E7B
:100EF8008A1534258A11831203133708303E8A1560
:100F080034258A11831203133908303E8A15342593
:100F18008A11B32F831203133808803AFF008030F8
:100F28007F02031D992F01303702031C9C2F9D2F30
:100F3800AC2F831203133708303E8A1534258A11E3
:100F4800831203133908303E8A1534258A11B32FCA
:100F5800831203133908303E8A1534258A11080094
:100F6800831203135B080319BA2FBB2FFD2F8316B7
:100F780003134008F2004108F300F401F50183125D
:100F880003135308F6005408F7005508F8005608EC
:100F9800F900831603132808F6022908031C290FF1
:100FA800D62FD72FF7022A08031C2A0FDC2FDD2F94
:100FB800F8022B08031C2B0FE22FE32FF902750808
:100FC8007902031DF12F74087802031DF12F7308AD
:100FD8007702031DF12F72087602031CF42FF52FF8
:100FE800FD2F831203130712DB0183160313C001BD
:060FF800C10108000334F2
:1010000008308A000408840A820700341E34003441
:101010002D3400343C34003478340034FF34FF3451
:10102000103427341D340134A5340034093401341C
:0C103000B93400340F3400346434003450
:1014C80064008001840A0406031900340406652AAE
:1014D80083160313811281110108F839033881003A
:1014E80006308312031381008B160800831203133E
:1014F8006408031D802A812A882AFB01FA01E70172
:10150800E601E5010130E4000800F400740803195D
:101518008E2A8F2A942A31308A1534258A15982ADA
:1015280030308A1534258A150800303083120313A9
:101538009000FF308F000E308E00831603130C14BA
:101548000B178B178312031310140800F500750886
:10155800031DAF2AB02AB42A7408803EF600B72AC1
:101568007408C03EF60076088A159D258A1508007D
:10157800F300831603178C18C22AC32ABD2A7308DE
:10158800831203178D0072088C00831603178C13BF
:101598000C158B1355308D00AA308D008C148C18C7
:1015A800D62AD72AD32A0C118B170800F5007508FC
:1015B800F40002300310F40DFF3E031DDE2A8312EF
:1015C80003131F08C33974049F000630F400F40B9A
:1015D800EB2A0000831203139F149F18F42AF52A9C
:1015E800F12A1E08F300831603131E08F2000800F0
:1015F800831203135B08031D022B032B222B0716F0
:10160800560883160313AB00831203135508831679
:101618000313AA0083120313540883160313A900A3
:1016280083120313530883160313A8007308C10019
:101638007208C000013083120313DB000800831214
:10164800031365080319292B2A2B4F2B72088400D2
:101658002D307A02031C312B332B0130342B003010
:1016680083138000730884002D306702031C3D2B10
:101678003F2B0130402B00308000740884002D304F
:101688006602031C482B4A2B01304B2B003080008C
:10169800E5010130502B0030080070308316031329
:1016A8008F0418308316031788008901E8308316E1
:1016B8000313850038308600033087000D3083120D
:1016C80003139F008030831603139F001A30F30022
:1016D800F830F200F20B6E2BF30B6E2B0000831226
:1016E80003138501860187018712071306108610E8
:1016F8000611871307120800003083120313A40091
:101708000030A3000030A2000030A100721C8D2B15
:101718008E2BA52B7608A107770803110318013E25
:101728000319972BA207780803110318013E031920
:101738009E2BA307790803110318013E0319A52B53
:10174800A4070130A0000310F60DF70DF80DF90DF0
:10175800A00BA72B01300310F50CF40CF30CF20CC2
:10176800FF3E031DAF2B7508740473047204031D38
:10177800BE2BBF2B8A2B2408F5002308F40022086F
:10178800F3002108F2000800831203130C1CCD2B70
:10179800CE2BE12B0130D307003003180130D407DA
:1017A800003003180130D507003003180130D60780
:1017B8000C10FF308F000E308E000B1DE42BE52B34
:1017C8000B2C063081000B1164080319EC2BED2B50
:1017D8000B2C861EF02BF12BF32B0130FA07061E7B
:1017E800F62BF72BF92B0130E707861DFC2BFD2B79
:1017F800FF2B0130E6070130FB0732307B02031C68
:10180800062C072C0B2CE4010130E5008B12710823
:101818008A00700E8300FE0E7E0E090083120313E9
:10182800A501A31F182C192C202CA209A309A20A70
:101838000319A30A0130A500A11F232C242C292C4D
:10184800A009A109A00A0319A10A20082104031963
:101858002E2C2F2C5C2C0130A4003B2C01300310C3
:10186800A00DA10DFF3E031D332C0130A407A11FBD
:101878003E2C3F2C322C21082302031D452C200826
:101888002202031C482C492C4F2C2008A2022108B4
:10189800031CA303A30201300310A10CA00CFF3EFC
:1018A800031D502C0130A402031D5B2C5C2C3F2C23
:1018B80025080319602C612C662CA209A309A20A29
:1018C8000319A30A2308A1002208A0000800F701B1
:1018D800F31F6F2C702C772CF209F309F20A031905
:1018E800F30A0130F700F51F7A2C7B2C822CF409BF
:1018F800F509F40A0319F50A0130F706F801F901A8
:10190800720873040319892C8A2CBF2C0130F60045
:10191800962C01300310F20DF30DFF3E031D8E2CA3
:101928000130F607F31F992C9A2C8D2C01300310E7
:10193800F80DF90DFF3E031D9B2C73087502031D5E
:10194800A72C72087402031CAA2CAB2CB22C7208A8
:10195800F4027308031CF503F50278140130031030
:10196800F30CF20CFF3E031DB32C0130F602031DED
:10197800BE2CBF2C9A2C77080319C32CC42CC92C55
:10198800F809F909F80A0319F90A7908F300780837
:10199800F2000800003083120313B1000030B000D9
:1019A8000030AF000030AE002808270426042504C4
:1019B8000319DF2CE02C2B2D0130B200EE2C013066
:1019C800AD000310A50DA60DA70DA80DAD0BE52CB8
:1019D8000130B207A81FF12CF22CE32C0130AD0026
:1019E8000310AE0DAF0DB00DB10DAD0BF42C2808E2
:1019F8002C02031D092D27082B02031D092D26087B
:101A08002A02031D092D25082902031C0C2D0D2D62
:101A18001C2D2508A9022608031C260FAA02270840
:101A2800031C270FAB022808031C280FAC022E1436
:101A380001300310A80CA70CA60CA50CFF3E031D33
:101A48001D2D0130B202031D2A2D2B2DF22C310839
:101A5800A8003008A7002F08A6002E08A500080037
:101A6800F300831203138716F31B3B2D3F2D8312BC
:101A780003138717422D831203138713731B452DF6
:101A8800492D8312031306154C2D831203130611D7
:101A9800F31A4F2D532D831203138614562D8312D8
:101AA80003138610731A592D5D2D83120313061420
:101AB800602D8312031306100717622D8312031378
:101AC80007134230F200F20B672D0000F3196D2D59
:101AD800712D831203138717742D83120313871331
:101AE8007319772D7B2D8312031306157E2D831210
:101AF80003130611F318812D852D83120313861401
:101B0800882D83120313861073188B2D8F2D831243
:101B180003130614922D8312031306100717942D2E
:101B28008312031307134230F200F20B992D0000C1
:101B38000800F300831203138712F31BA42DA82DAA
:101B4800831203138717AB2D831203138713731B99
:101B5800AE2DB22D831203130615B52D8312031370
:101B68000611F31AB82DBC2D831203138614BF2D4A
:101B7800831203138610731AC22DC62D8312031302
:101B88000614C92D8312031306100717CB2D8312D1
:101B9800031307134230F200F20BD02D0000F319A3
:101BA800D62DDA2D831203138717DD2D8312031325
:101BB80087137319E02DE42D831203130615E72DFF
:101BC800831203130611F318EA2DEE2D8312031363
:101BD8008614F12D8312031386107318F42DF82D33
:101BE800831203130614FB2D831203130610071721
:101BF800FD2D8312031307134230F200F20B022E5D
:101C080000000800F8018312031387180C2E0D2E0C
:101C1800702E8230F300DD30F200F20B112EF30B40
:101C2800112E162E8312031387181B2E1C2E702EAE
:101C3800F601F7011430F4000030F500582E1A3080
:101C4800F300F830F200F20B272EF30B272E0000DA
:101C58000130F6070318F70A0030F707750877020E
:101C6800031D382E74087602031C3B2E3C2E582E7A
:101C78000130F800482E1A30F300F830F200F20B69
:101C8800432EF30B432E000083120313871C4D2EA3
:101C98004E2E3F2E8230F300DD30F200F20B522E32
:101CA800F30B522E572E5E2E83120313871C5D2EC4
:101CB8005E2E232E7808031D622E632E6E2E823030
:101CC800F300DD30F200F20B672EF30B672E6C2E5B
:101CD8000030712E0130712E003008002730F500D9
:101CE800F530F400F40B762EF50B762E83120313E1
:101CF800871287130611861406140717832E83127A
:101D0800031307130D30F500FB30F400F40B8A2E93
:101D1800F50B8A2E8F2E831203130717932E831227
:101D2800031307130330F5009730F400F40B9A2ED1
:101D3800F50B9A2E9F2E831203130717A32E8312D7
:101D4800031307130330F5009730F400F40BAA2EA1
:101D5800F50BAA2EAF2E83120313871306118614D0
:101D680006100717B72E8312031307130330F50065
:101D78009730F400F40BBE2EF50BBE2EC32E283080
:101D88008A159D258A1508308A159D258A150130E2
:101D98008A159D258A150630F5003030F400F40BBD
:101DA800D32EF50BD32E000006308A159D258A15F3
:101DB8000C308A159D258A15080083120313C30069
:101DC8004308BB00BC01BD01BE015308BF00540855
:101DD800C0005508C1005608C20083160313200826
:101DE80083120313BF02831603132108031C210F58
:101DF800FE2E012F83120313C00283160313220839
:101E0800031C220F082F0B2F83120313C102831602
:101E180003132308031C230F122F152F83120313F8
:101E2800C20283160313831203133E084202031DE2
:101E3800272F3D084102031D272F3C084002031DA0
:101E4800272F3B083F02031C2A2F2B2FFF2F560852
:101E580083160313A3008312031355088316031371
:101E6800A20083120313540883160313A1008312DC
:101E78000313530883160313A00001308A159D2508
:101E88008A15063083120313BC003030BB00BB0B2D
:101E98004B2FBC0B4B2FF40101308A15AA228A154F
:101EA800831203136808BB00BC013B08B3003C085D
:101EB800B4008A1105278A150430F40001308A1508
:101EC800AA228A15831203136E08013EB30000305C
:101ED80003180130B4008A1105278A150730F40069
:101EE80001308A15AA228A1583160313340883122F
:101EF80003135702B300831603133508031C350A6E
:101F0800831203135802B4008A1105278A150B306F
:101F1800F40001308A15AA228A1583120313630874
:101F28008A1589228A15F40100308A15AA228A1591
:101F3800831203136D088A1589228A150230F4006A
:101F480000308A15AA228A15831203136C088A1591
:101F580089228A150430F40000308A15AA228A15CD
:101F6800831203136B088A1589228A150630F40038
:101F780000308A15AA228A158312031362088A156B
:101F880089228A150830F40000308A15AA228A1599
:101F980083160313450883120313B400831603132F
:101FA800440883120313B3008A1105278A150D30DC
:101FB800F40000308A15AA228A1500308312031310
:101FC800A8000030A7000330A600E830A50052089A
:101FD800AC005108AB005008AA004F08A9008A15A8
:101FE800CE248A15831203132608B4002508B300EB
:081FF8008A1105278A15080073
:02400E00E423A9
:00000001FF
